:020000040800F2
:10000000B85E0220253F00082D3F00082F3F000862
:10001000313F0008333F0008353F00080000000072
:10002000000000000000000000000000373F000852
:10003000393F0008000000003B3F00083D3F00083A
:100040003F3F00083F3F00083F3F00083F3F000898
:100050003F3F00083F3F00083F3F00083F3F000888
:100060003F3F00083F3F00083F3F00083F3F000878
:100070003F3F00083F3F00083F3F00083F3F000868
:100080003F3F00083F3F00083F3F00083F3F000858
:100090003F3F00083F3F00083F3F00083F3F000848
:1000A0003F3F00083F3F00083F3F00083F3F000838
:1000B0003F3F000849040008A90400083F3F00082A
:1000C0003F3F00083F3F00083F3F00083F3F000818
:1000D0003F3F00083F3F00083F3F00083F3F000808
:1000E0003F3F00083F3F00083F3F00083F3F0008F8
:1000F0003F3F00083F3F00083F3F00083F3F0008E8
:100100003F3F00083F3F00083F3F00083F3F0008D7
:100110003F3F00083F3F00083F3F00083F3F0008C7
:100120003F3F0008F30400083F3F00083F3F00083E
:100130003F3F00083F3F00083F3F00083F3F0008A7
:100140003F3F00083F3F00083F3F00083F3F000897
:100150003F3F00083F3F00083F3F00083F3F000887
:100160003F3F00083F3F00083F3F00083F3F000877
:100170003F3F00083F3F00083F3F00083F3F000867
:100180003F3F00083F3F00083F3F00083F3F000857
:100190003F3F00083F3F00083F3F00083F3F000847
:1001A0003F3F00083F3F00083F3F000800F002F8D3
:1001B00000F03CF80AA090E8000C82448344AAF1C5
:1001C0000107DA4501D100F031F8AFF2090EBAE8C3
:1001D0000F0013F0010F18BFFB1A43F0010318477B
:1001E0005469000074690000103A24BF78C878C1CF
:1001F000FAD8520724BF30C830C144BF04680C602D
:10020000704700000023002400250026103A28BF74
:1002100078C1FBD8520728BF30C148BF0B60704778
:100220001FB503F0FEFF1FBD10B510BD03F0BFFFEB
:100230001146FFF7F5FF00F04FF803F0DDFF03B4C0
:10024000FFF7F2FF03BC03F0E5FF0000B24800BF78
:10025000411E081EFCD1704700B587B00121084639
:1002600002F07DFA0121102002F0D1FA02208DF86F
:1002700018004FF4C060059000208DF81A0002208D
:100280008DF8190000208DF81B0005A9A34801F086
:1002900099FD07220921A14801F01FFE07220A212A
:1002A0009E4801F01AFE4FF4165001900C20ADF854
:1002B0000E000020ADF81000ADF80C00ADF80800FD
:1002C000ADF80A0001A9964803F069FC01219448A1
:1002D00003F0EDFC07B000BD1CB5FFF7BDFF03F058
:1002E000C9FE00F05DF900F073F900F09CF900F030
:1002F00009FA00F02DFA00F0FCFA00F063FD4FF46B
:10030000804000F07CF9032000F040FE002000F067
:10031000D7FD00204FF6FF71824B83A2CDE900107C
:100320003721142000F0B8FE4FF6FF708223DD2243
:100330006E210090632000F06BFF00F0B3FA0446DA
:10034000BCB100204FF47841764B7CA2CDE900107F
:10035000A521642000F0A0FE00204FF6FF71714B34
:1003600078A2CDE90010C821142000F095FE00BF4E
:10037000FEE700204FF6FF716A4B77A2CDE900102F
:10038000A521642000F088FE002000F099FD1F20C8
:100390004FF6FF71634B72A2CDE900106E213C2035
:1003A00000F07AFE01F048F94DE07148007801282C
:1003B0003CD17048007868B901206E49087080030C
:1003C00000F024F94FF4005000F019F9012001F079
:1003D00053FA28E06848007828BB00206549087077
:1003E0004FF4005000F012F94FF4804000F007F98C
:1003F000002001F041FA0020604908600EE06048EA
:100400005E4A126830F81210454803F07BFC5B48E6
:100410000068401C59490860FFF718FF57480068FA
:10042000B0F5963FEBDB0020514908705248007848
:10043000012808D1022000F0A9FD514800F072FD0A
:1004400000204D490870B0E710B501214D4803F078
:1004500052FA40B300F0E1F804460121494803F0A4
:100460005BFA49480078844209DD4248007818B9AF
:100470000121464802F010FE00204549087044481A
:10048000007868B940480078844209DA0120384988
:1004900008703848007818B900213C4802F0FCFD8B
:1004A0003948047000BF10BD10B50121374803F072
:1004B00022FAE8B10121354803F02EFA35480078D8
:1004C000012812D10021314802F0E6FD0120304917
:1004D00008700320274908704FF4005000F08FF88F
:1004E0004FF4804000F08BF802E0012029490870A9
:1004F00010BD10B52849294801F090FB50B126499C
:10050000264801F0B5FB0121244801F0DDFA012065
:100510001949087010BD0000803801000000024039
:10052000001001401C000020436F6E666967757201
:10053000696E672063616D65726100004661696C78
:10054000656400005075736820726573657420627D
:100550007574746F6E000000537563636573730088
:100560004D504F412070726F6A6563740000000047
:1005700001000020000000200300002004000020F3
:100580005400002000040040080000200008004043
:1005900002000020090000200088001028640240AA
:1005A0001CB50121402002F0DAF84FF4C040009061
:1005B00001208DF8040000208DF806008DF807005A
:1005C00003208DF805006946454801F0FBFB1CBD82
:1005D0001CB50121084602F0C2F80120009000205D
:1005E0008DF804008DF8060002208DF80700032026
:1005F0008DF8050069463B4801F0E4FB1CBD10B5D1
:1006000004462146364801F059FC10BD10B5044699
:100610002146334801F054FC10BD10B5012131488A
:1006200001F032FC10BD1FB50121022002F0DEF8FE
:1006300040F2F310029041F2BF20ADF80400002018
:10064000ADF80C00ADF806008DF80E0001A92648A3
:1006500002F099FC01221146234803F035F90121EB
:10066000214802F019FD1D208DF8000000208DF8B2
:1006700001008DF8020001208DF80300684601F0AA
:1006800016F80121042002F0B1F84CF24F3002902C
:1006900042F27F50ADF804000020ADF80C00ADF838
:1006A00006008DF80E0001A9104802F06CFC012232
:1006B00011460E4803F008F900210C4802F0ECFC4A
:1006C0001E208DF8000000208DF801008DF802003A
:1006D00001208DF80300684600F0E9FF1FBD00000F
:1006E00000180240000002400004004000080040E2
:1006F00001B500BFBDF80000411E89B2009100287D
:10070000F8D108BD1CB5012001F00AFF01210846FF
:1007100002F025F84FF48070009003208DF805005A
:1007200002208DF8040000208DF8060001208DF8CD
:1007300007006946EA4801F045FB00220821E84825
:1007400001F0CBFB4FF0C061081101F0ECFE1CBDC5
:1007500000B587B00121480502F048F801210220C8
:1007600001F0FDFF4FF44070059002208DF8180055
:1007700000208DF8190001208DF81A008DF81B005B
:1007800005A9D84801F01EFB04220821D54801F034
:10079000A4FB04220921D34801F09FFBD24801F0B9
:1007A000D5FB0020ADF808004BF6FF70ADF80A004D
:1007B0000020ADF80C004FF48060ADF80E00000191
:1007C000ADF81000C948019001221102C64801F09D
:1007D00074FD01A9C44801F0E2FB0121C24801F007
:1007E0005AFC07B000BD70B505460E46C04C05E08A
:1007F000201EA4F1010401D1012070BD4FF400318D
:10080000B94801F085FD0028F2D10121B64801F078
:1008100065FC05E0201EA4F1010401D10120ECE7F4
:10082000B449B14801F052FD0028F3D00022422122
:10083000AD4801F06BFC05E0201EA4F1010401D1DC
:100840000120DAE7AC49A84801F040FD0028F3D0C8
:100850002946A54801F0DEFC05E0201EA4F10104B4
:1008600001D10120C9E7A449891C9F4801F02EFD50
:100870000028F2D031789C4801F0CCFC05E0201E25
:10088000A4F1010401D10120B7E79B49891C9648D6
:1008900001F01CFD0028F2D00121934801F02AFC50
:1008A0000020AAE77CB5002400BF1DE0934800EBC0
:1008B000440040780190914911F8140001A9FFF714
:1008C00092FF054605B111E04FF6FF7004F1630297
:1008D0000090104682236E2100F027FC4FF6FF7037
:1008E000FFF706FF601CC4B27A2CDFDB00BF28468E
:1008F0007CBD00B597B00121084601F059FF0121E8
:10090000084601F02CFF0121022001F028FF0121FF
:10091000042001F024FF0121102001F020FF01211B
:10092000880501F01CFF5020159002208DF858001A
:1009300003208DF8590000208DF85A0001208DF811
:100940005B0015A9664801F03DFAC0201590022011
:100950008DF8580003208DF8590000208DF85A00BA
:1009600001208DF85B0015A95E4801F02BFA4FF4C9
:100970007070159002208DF8580003208DF85900F2
:1009800000208DF85A0001208DF85B0015A95C4805
:1009900001F018FA7020159002208DF858000320FD
:1009A0008DF8590000208DF85A0001208DF85B0069
:1009B00015A9544801F006FA0D220721494801F013
:1009C0008CFA0D220421464801F087FA0D220621F7
:1009D000434801F082FA0D220621494801F07DFAD0
:1009E0000D220721464801F078FA0D2208214448DB
:1009F00001F073FA0D220921414801F06EFA0D222F
:100A00000421404801F069FA0D220621354801F021
:100A100064FA0D2205213B4801F05FFA0D22062100
:100A2000384801F05AFA00F0ADFE0020ADF844005D
:100A3000ADF85000ADF84E002020ADF84800002081
:100A4000ADF84C008020ADF84A000020ADF846001B
:100A500011A800F0A3FE012000F0FFFE2A4800F0DC
:100A600057FF4FF0007002902848039028480490E8
:100A7000002005904FF416400690002007904FF498
:100A8000806008908000099040000A9000200B9040
:100A90004FF400300C9004200D9003200E900020A5
:100AA0000F90109002A9184800F0D4FF01211648B9
:100AB00001F00AF801221021134801F092F83920C0
:100AC0008DF8040000208DF805008DF80600012047
:100AD0008DF8070001A800F0EAFD17B000BD000086
:100AE000000002400004024000540040A0860100C3
:100AF000FFFF7F0001000300820007002C42000876
:100B000000080240001002402864024028000550FE
:100B10005400002010B504464FF40051F94801F08C
:100B2000CFF90421F84801F0CBF92146F74800F04D
:100B300030FD0421F44801F0C1F910BD01B502E017
:100B40000098401E009000980028F9D108BD10B50B
:100B500004464FF40051EB4801F0B0F90421EA4893
:100B600001F0AEF92146E94800F013FD0421E64802
:100B700001F0A4F910BD10B54FF48051E14801F027
:100B80009DF90120FFF7C6FFE148FFF7D7FFCB2013
:100B9000FFF7C0FF3920FFF7DAFF2C20FFF7D7FF60
:100BA0000020FFF7D4FF3420FFF7D1FF0220FFF72A
:100BB000CEFFCF20FFF7AEFF0020FFF7C8FFC12018
:100BC000FFF7C5FF3020FFF7C2FFE820FFF7A2FFC5
:100BD0008520FFF7BCFF0020FFF7B9FF7820FFF763
:100BE000B6FFEA20FFF796FF0020FFF7B0FF0020D6
:100BF000FFF7ADFFED20FFF78DFF6420FFF7A7FFA4
:100C00000320FFF7A4FF1220FFF7A1FF8120FFF7C9
:100C10009EFFF720FFF77EFF2020FFF798FFC02000
:100C2000FFF778FF2320FFF792FFC120FFF772FF45
:100C30001020FFF78CFFC520FFF76CFF3E20FFF769
:100C400086FF2820FFF783FFC720FFF763FF86207A
:100C5000FFF77DFF3620FFF75DFF4820FFF777FFA6
:100C60003A20FFF757FF5520FFF771FFB120FFF73C
:100C700051FF0020FFF76BFF1820FFF768FFB62039
:100C8000FFF748FF0820FFF762FF8220FFF75FFFB2
:100C90002720FFF75CFFF220FFF73CFF0020FFF763
:100CA00056FF2A20FFF736FF0020FFF750FF0020F5
:100CB000FFF74DFF0020FFF74AFFEF20FFF747FF48
:100CC0002B20FFF727FF0020FFF741FF0020FFF751
:100CD0003EFF0120FFF73BFF3F20FFF738FF2620B4
:100CE000FFF718FF0120FFF732FFE020FFF712FFA8
:100CF0000F20FFF72CFF3120FFF729FF2B20FFF7F4
:100D000026FF0C20FFF723FF0E20FFF720FF08200F
:100D1000FFF71DFF4E20FFF71AFFF120FFF717FF27
:100D20003720FFF714FF0720FFF711FF1020FFF710
:100D30000EFF0320FFF70BFF0E20FFF708FF09202F
:100D4000FFF705FF0020FFF702FFE120FFF7E2FEBB
:100D50000020FFF7FCFE0E20FFF7F9FE1420FFF73E
:100D6000F6FE0320FFF7F3FE1120FFF7F0FE072049
:100D7000FFF7EDFE3120FFF7EAFEC120FFF7E7FEA7
:100D80004820FFF7E4FE0820FFF7E1FE0F20FFF701
:100D9000DEFE0C20FFF7DBFE3120FFF7D8FE362009
:100DA000FFF7D5FE0F20FFF7D2FE1120FFF7B2FEAE
:100DB0005848FFF7C3FE2920FFF7ACFE2C20FFF7B1
:100DC000A9FE10BD1CB50121082001F0C8FC4FF49C
:100DD0000050009002208DF8050001208DF80400DD
:100DE00000208DF806008DF807006946454800F0A0
:100DF000E9FF0121042001F0B2FC042000906946C3
:100E0000414800F0DFFF0121082001F0A8FC01208B
:100E10008DF807000003009069463A4800F0D2FFC1
:100E20000421394801F04AF800F064FBFFF7A3FE03
:100E300000203949088039490880F0203849088065
:100E40004FF4A0704880012008711CBD2DE9F041CD
:100E500004460D4616461F462A20FFF75BFE201269
:100E6000FFF775FEE0B2FFF772FE3012FFF76FFE7C
:100E7000F0B2FFF76CFE2B20FFF74CFE2812FFF7B5
:100E800066FEE8B2FFF763FE3812FFF760FEF8B2C5
:100E9000FFF75DFEBDE8F08170B505460E461446CD
:100EA00033462A4631462846FFF7D0FF2C20FFF76D
:100EB00031FE2012FFF74BFEE0B2FFF748FE70BD97
:100EC0002DE9F04104462612E7B215484088401E3D
:100ED00083B213480088401E82B200210846FFF703
:100EE000B5FF2C20FFF716FE002506E0F0B2FFF755
:100EF0002EFEF8B2FFF72BFE6D1CB5F5963FF5D32D
:100F0000BDE8F081000C02400008024000500140A2
:100F100080841E0040420F00260000202400002094
:100F2000280000202DE9F0410546FE484088401E7B
:100F300083B2FC480088401E82B200210846FFF7B9
:100F400085FF2C20FFF7E6FD4FF40051F64800F036
:100F5000B5FF0421F54800F0B3FF00240DE035F89B
:100F60001400061215F814703146F14800F011FB18
:100F70003946EF4800F00DFB641CB4F5963FEED304
:100F80000421EA4800F09AFFBDE8F08110B504465C
:100F90003620FFF7BFFD1CB95820FFF7D8FD10E041
:100FA000012C03D18820FFF7D2FD0AE0022C03D1E7
:100FB0002820FFF7CCFD04E0032C02D1E820FFF746
:100FC000C6FD0CB1012C08D1F020D64908804FF4A1
:100FD000A07048800120087107E04FF4A070D1494B
:100FE0000880F02048800020087110BD2DE9F05FD6
:100FF0000746884691461C46DDF828B0CD48078054
:10100000CD48A0F800802078CA4909880844C5491D
:101010000988884208DD6078C74909880844C649BC
:1010200008800020C349088000252AE0A9F120009B
:10103000617800FB0150616831F810A000261CE0C7
:101040000AFA06F000F4004058B1BB4A12882A445C
:1010500091B2B84A1288324490B25A46FFF71CFF48
:101060000AE0B54A12882A4491B2B24A1288324440
:1010700090B20B9AFFF710FF761C2078B042DFD8B1
:101080006D1C6078A842D1D82078AA490988084404
:10109000A8490880BDE8F09F2DE9FC4705460E46AB
:1010A00014461F46DDE90A9AA846A2480580A248D0
:1010B000068027E020780A2813D17878401C9E49C2
:1010C000098808449C49088060780D2804D10020D4
:1010D00098490880641C02E09648A0F80080641CCF
:1010E00010E020780D2801D1641C0BE0CDE9009AB6
:1010F00014F8012B3B46904801888E480088FFF782
:1011000075FF00BF20780028D4D1BDE8FC8770B5FA
:1011100000244D781D8002E00D782544ACB210F813
:10112000016B002EF8D1148070BD2DE9FC5F0446E0
:101130000D4616461F467B480088A04203DC7948CE
:101140000088401E84B277480088B04203DC7548AE
:101150000088401E86B273484088A84203DC71486C
:101160004088401E85B26F484088B84203DC6D4815
:101170004088401E87B2B44201DA301B00E0A01B59
:101180000FFA80FABD4201DA781B00E0E81B0FFA83
:1011900080F8B44201DA012001E04FF0FF30019005
:1011A000BD4201DA012001E04FF0FF300090C2455E
:1011B00001DD514601E0C8F10001084601EBD071A4
:1011C00049100FFA81F91FE0294620460C9AFFF7D3
:1011D00063FEB44202D1BD4200D116E0CB46D946EF
:1011E000CAF10000834506DDA9EB08000FFA80F97B
:1011F0000198204484B2C34506DA09EB0A000FFACD
:1012000080F90098284485B2DEE700BFBDE8FC9F66
:101210002DE9F84305460E4617469846089C334686
:101220003A46314628460094FFF77FFF43462A4658
:10123000314628460094FFF778FF43463A46314648
:1012400038460094FFF771FF43463A464146284628
:101250000094FFF76AFFBDE8F8832DE9F8430646DE
:101260000C4617461D46DDF8208009E023463A4625
:1012700021463046CDF80080FFF757FF601C84B24E
:10128000AC42F3DBBDE8F8832DE9FF5F05460E466F
:101290009046C8F101000FFA80F94FF0010A4FEAB9
:1012A000480040420FFA80FB0027444606EB080244
:1012B00091B2A8B2039AFFF7EFFDA6EB080291B234
:1012C000A8B2039AFFF7E8FDB1B205EB080290B2AD
:1012D000039AFFF7E1FDB1B2A5EB080290B2039AC1
:1012E000FFF7DAFD5BE0B9F1000F09DB601E04B225
:1012F0000BF102000FFA80FB09EB0B000FFA80F9EB
:10130000781C07B20AF102000FFA80FA09EB0A0012
:101310000FFA80F9321991B2EA1990B2039AFFF7E5
:10132000BBFD0BE028000020000C0240000802403A
:10133000005001402400002026000020321991B204
:10134000EA1B90B2039AFFF7A7FD321B91B2EA198C
:1013500090B2039AFFF7A0FD321B91B2EA1B90B244
:10136000039AFFF799FDF21991B22A1990B2039AE4
:10137000FFF792FDF21991B22A1B90B2039AFFF780
:101380008BFDF21B91B22A1990B2039AFFF784FDEC
:10139000F21B91B22A1B90B2039AFFF77DFDA74280
:1013A000A1DBBDE8FF9F2DE9FC5F05460E46174611
:1013B0009946C7F101000FFA80FA4FF0010B78004F
:1013C000404200B201904FF000083C46F21991B241
:1013D000A8B24A46FFF760FDF21B91B2A8B24A4696
:1013E000FFF75AFDB1B2EA1990B24A46FFF754FD31
:1013F000B1B2EA1B90B24A46FFF74EFDB3B205EB1D
:10140000070C1FFA8CF2B1B2A5EB070C1FFA8CF097
:10141000CDF80090FFF789FE68E0BAF1000F09DB14
:10142000601E04B20198801C00B2019001985044E3
:101430000FFA80FA08F101000FFA80F80BF10200B0
:101440000FFA80FB0AEB0B000FFA80FA06EB040C94
:101450001FFA8CF305EB080C1FFA8CF206EB040C58
:101460001FFA8CF1A5EB080C1FFA8CF0CDF8009058
:10147000FFF75BFEA6EB040C1FFA8CF3A5EB080C40
:101480001FFA8CF2A6EB040C1FFA8CF105EB080C8A
:101490001FFA8CF0CDF80090FFF747FE06EB080C22
:1014A0001FFA8CF3A5EB040C1FFA8CF206EB080C68
:1014B0001FFA8CF105EB040C1FFA8CF0CDF80090AC
:1014C000FFF733FEA6EB080C1FFA8CF3A5EB040C18
:1014D0001FFA8CF2A6EB080C1FFA8CF105EB040C3A
:1014E0001FFA8CF0CDF80090FFF71FFEA04594DBAB
:1014F000BDE8FC9F00B587B000208DF81A008DF87C
:101500001B0003208DF8190002208DF8180001211E
:10151000202001F024F94FF46070059005A95F4880
:1015200000F050FC052207215C4800F0D6FC0522A3
:1015300008215A4800F0D1FC05220921574800F043
:10154000CCFC0121080501F062F9684601F05FFB5F
:101550002020ADF80C000020ADF80400ADF800002C
:10156000ADF80E004FF48270ADF802000020ADF827
:101570000600ADF808004FF40070ADF80A006946A7
:10158000474801F077FA0121454801F056FB07B0C2
:1015900000BD70B504460D46A58100BF022120465E
:1015A00001F003FC0028F9D000BF0121204601F022
:1015B000FCFB0028F9D000BF8021204601F0F5FB9C
:1015C0000028F9D1A089C0B270BD2DE9F041804654
:1015D0000D4616461F46002406E0295D4046FFF7EB
:1015E000D8FF3055601CC4B2BC42F6DBBDE8F081C8
:1015F0002DE9F04107460D461646002405E0295D19
:101600003846FFF7C6FF601C84B2B442F7DBBDE882
:10161000F0812DE9F04180460D4616461F46002414
:1016200006E031464046FFF7B4FF2855601C84B2FF
:10163000BC42F6DBBDE8F08100B585B0002118485A
:1016400001F0FBFA0121080501F0E1F8684601F01C
:10165000DEFA0020ADF80C00ADF80400ADF8000093
:10166000ADF80E004FF48270ADF802000020ADF826
:101670000600ADF808004FF40070ADF80A006946A6
:10168000074801F0F7F90121054801F0D6FA0121D8
:10169000034801F0D2FA05B000BD0000001402407A
:1016A0000050014032490143324A1160704770B521
:1016B000002100230F22C4781CB32E4C246804F4AC
:1016C000E064C4F5E064C4F30721C1F10404E3B2AB
:1016D0000A4144789C40E1B28478144021430C07CD
:1016E000210E254C05786155047804F01F0501246E
:1016F000AC4005786D11AD0005F1E025C5F800415D
:1017000009E0047804F01F050124AC401B4D067865
:10171000761145F8264070BD194A0A400243154B20
:101720001B1F1A60704739B1124A121D126802431A
:10173000104B1B1D1A6006E00E4A121D12688243F0
:101740000C4B1B1D1A607047042808D14FF0E02194
:10175000096941F004014FF0E022116107E04FF008
:10176000E021096921F004014FF0E0221161704786
:101770000000FA050CED00E000E400E080E100E08C
:1017800080FFFF1F002061490860C8601F2048617A
:1017900000208861C86108624862704700215B4A86
:1017A000126844F201039A43584B1A601A461168B2
:1017B00040F6F2729143028843881A4383881A43A1
:1017C000C3881A4303891A4343891A4383891A43F6
:1017D00011434E4A11607047002101804180818091
:1017E000C18001814181818170474188028841EA3D
:1017F0000241464A1162C188828841EA0241434A55
:101800005162704730B14149096841F004013F4AD3
:10181000116005E03D49096821F004013B4A11606F
:1018200070470178427841EA0221827841EA024118
:10183000C27841EA0261354A9161704730B133495B
:10184000096841F00801314A116005E02F49096833
:1018500021F008012D4A1160704730B12B49096809
:1018600041F48041294A116005E02849096821F4C2
:101870008041264A1160704730B12449096841F01F
:101880000101224A116005E02049096821F00101A7
:101890001E4A116070471D48806A704729B11B4A73
:1018A000D2680243194BDA6006E0184AD268C34393
:1018B0009BB21A40154BDA60704710B50146002004
:1018C00000230A1312B9114CA36806E0022A02D1C0
:1018D0000E4C636801E00D4C236903EA01040CB16E
:1018E000012000E0002010BD084948617047014612
:1018F00000200022054B1B6903EA01020AB1012006
:1019000000E0002070470149486170470000055021
:10191000016821F0010101600021016041608160E6
:10192000C160016121214161DB49884204D13D212F
:10193000D94A103A91608CE0D7491831884205D1D4
:101940004FF47461D44A103A916082E0D249303148
:10195000884205D14FF47411CF4A103A916078E073
:10196000CD494831884205D14FF07461CA4A103AD6
:1019700091606EE0C8496031884204D1C749C64AC7
:10198000103AD16065E0C4497831884204D1C44935
:10199000C14A103AD1605CE0BF499031884204D11D
:1019A000C049BD4A103AD16053E0BB49A8318842D2
:1019B00005D14FF03D51B84A103AD16049E0BA49DB
:1019C000884204D13D21B84A083A116041E0B64945
:1019D0001831884205D14FF47461B34A083A116056
:1019E00037E0B1493031884205D14FF47411AE4A25
:1019F000083A11602DE0AC494831884205D14FF0DA
:101A00007461A94A083A116023E0A749603188420D
:101A100004D1A249A44A121F11601AE0A2497831E8
:101A2000884204D19E49A04A121F116011E09E49CC
:101A30009031884204D19B499B4A121F116008E0F3
:101A40009949A831884204D14FF03D51964A121F5E
:101A50001160704710B500220268944B1A40CC68A0
:101A60000B6823434C6923438C692343CC6923438C
:101A70000C6A23434C6A23438C6A23434C6B2343F5
:101A80008C6B23431A430260426922F00702D1E9BA
:101A90000B3423431A4342610B6943604B688360F4
:101AA0008B68C36010BD0021016041608160C1602E
:101AB000016141618161C161016241628162C16212
:101AC000016341638163704721B1026842F0010202
:101AD000026003E0026822F001020260704721B157
:101AE000026842F40042026003E0026822F400420D
:101AF0000260704721B1026842F02002026003E0F8
:101B0000026822F02002026070474160704701467F
:101B1000486880B2704722B1036843F40023036031
:101B200003E0036823F4002303600161704721B1DF
:101B3000026842F48022026003E0026822F48022FC
:101B4000026070470AB1016100E0C1607047014660
:101B500000200A6802F400220AB1012000E00020FF
:101B60007047014600200A6802F001020AB1012014
:101B700000E000207047014600204A6902F038006A
:101B8000704730B503460A4600200024464DAB425C
:101B900002D24149103901E04349103902F00055A1
:101BA0000DB14C6800E00C68414D2C4004EA020580
:101BB0000DB1012000E0002030BD02463A4B9A42B0
:101BC00002D23548103801E03748103801F0005390
:101BD0001BB1374B0B40C36002E0354B0B408360B9
:101BE000704710B501F080034BB122B1436943F057
:101BF0008003436103E0436923F08003436180294C
:101C00000BD02AB1036801F01E042343036004E0F3
:101C1000036801F01E04A343036010BD70B50246C3
:101C2000002000240025204EB24202D21A4B103B65
:101C300001E01D4B103B1F4E0E4036B11E2606EA3A
:101C4000D124166806EA040502E0566906F080050C
:101C500001F000560EB15C6800E01C68144E344080
:101C600004EA010616B10DB1012000E0002070BDAC
:101C700002460D4B9A4202D20748103801E00A484A
:101C8000103801F000531BB1094B0B40C36002E058
:101C9000074B0B4083607047106002403D000020FE
:101CA000400F002000003D20106402403F801CF0E7
:101CB0007D0F7D0F3C0F3C0F10B5044698488442C1
:101CC00008D10121084600F0B3FD0021012000F0F9
:101CD000AFFD76E09348844208D10121022000F054
:101CE000A7FD0021022000F0A3FD6AE08E48844297
:101CF00008D10121042000F09BFD0021042000F008
:101D000097FD5EE08948844208D10121082000F057
:101D10008FFD0021082000F08BFD52E084488442B2
:101D200008D10121102000F083FD0021102000F0D7
:101D30007FFD46E07F48844208D10121202000F049
:101D400077FD0021202000F073FD3AE07A488442BC
:101D500008D10121402000F06BFD0021402000F05F
:101D600067FD2EE07548844208D10121802000F0F3
:101D70005FFD0021802000F05BFD22E0704884427E
:101D800008D10121801500F053FD0021A01500F0BD
:101D90004FFD16E06B48844208D10121401500F048
:101DA00047FD0021601500F043FD0AE066488442CB
:101DB00007D10121001500F03BFD0021201500F0A6
:101DC00037FD10BDF0B50A4600210023002400BFF6
:101DD0003DE0012505FA01F3156805EA03049C427C
:101DE00034D105684F000326BE40B5430560157920
:101DF0004E00B5400668354305601579012D02D0C7
:101E00001579022D16D185684F000326BE40B543D3
:101E1000856055794E00B5408668354385604568D4
:101E200001268E40B5434560456896798E40B6B22E
:101E300035434560C5684F000326BE40B543C560C5
:101E4000D5794E00B540C6683543C560491C102998
:101E5000BFD3F0BD4FF6FF710160002101714171E8
:101E60008171C171704708B54FF480320092009AB9
:101E70000A430092009AC261C161009AC261C269BC
:101E80000092C269009208BD0246002013690B400F
:101E90000BB1012000E0002070470146086980B2C4
:101EA00070470246002053690B400BB1012000E04F
:101EB000002070470146486980B27047018370472F
:101EC000418370470AB1018300E04183704741615B
:101ED000704742694A4042617047F0B500230024D0
:101EE0004D07ED0E02FA05F3CE1000F1200555F86E
:101EF00026504E07F70E0F26BE40B543CF1000F117
:101F0000200646F82750CE1000F1200555F826503F
:101F100045EA0304CE1000F1200545F82640F0BD47
:101F2000000002400004024000080240000C024091
:101F3000001002400014024000180240001C024041
:101F400000200240002402400028024010B5044650
:101F5000F848844209D10121480500F09CFC002189
:101F60004FF4001000F097FC18E0F348844209D1C8
:101F70000121880500F08FFC00214FF4800000F063
:101F80008AFC0BE0ED48844208D10121C80500F02D
:101F900082FC00214FF4000000F07DFC10BD2DE913
:101FA000FF4704460D460026B1460427DFF890831C
:101FB000A6884FF6C0700640684600F0FFFADDF8CC
:101FC0000880E048B8FBF0F01FFA80F946EA0906FD
:101FD000A68020884FF6FE71084020800026DA494E
:101FE000286888420CD828684000B8FBF0F087B217
:101FF000042F00DA04273E4309F10100208427E082
:10200000E8884BF6FF71884206D1286800EB400053
:10201000B8FBF0F087B209E0286800EBC00101EBE3
:102020000010B8FBF0F087B247F48047C7F30B000D
:1020300008B947F0010747F4004006434FF4967093
:1020400009FB00F04FF47A7190FBF1F0401C208402
:10205000A683208840F00100208026884FF6F530C6
:102060000640A8886989084306432680A8892989EB
:1020700008432081BDE8FF8741F2883101600021DB
:1020800081804BF6FF71C1800021018141814FF4B5
:1020900080418181704721B1028842F001020280B3
:1020A00004E002884FF6FE731A400280704729B19F
:1020B000828C4FF6EF731A40828403E0828C42F0E8
:1020C0001002828470470A460021818C4FF6F0731B
:1020D000194002F00F0319438184704721B102882F
:1020E00042F48072028004E002884FF6FF631A40D7
:1020F0000280704721B1028842F40072028004E03D
:1021000002884FF6FF531A400280704712B141F027
:10211000010101E001F0FE010182704721B1028856
:1021200042F48062028004E002884FF6FF331A40D6
:10213000028070470A46002181894FF601731940D9
:1021400002F0FE0319438181704721B1828942F078
:102150000102828104E082894FF6FE731A40828177
:10216000704721B1028842F04002028004E00288F8
:102170004FF6BF731A400280704721B1028842F4C3
:102180000042028003E00288C2F30E020280704720
:1021900021B9028842F08002028004E002884FF6F2
:1021A0007F731A4002807047B1F5804F05D0828B53
:1021B0004BF6FF731A40828303E0828B42F4804225
:1021C00082837047B1F5006F04D1028842F4006247
:1021D000028004E002884FF2FF731A4002807047C9
:1021E000B1F5005F04D1028842F40052028004E09D
:1021F00002884DF6FF731A400280704721B10288B1
:1022000042F01002028004E002884FF6EF731A4099
:1022100002807047018270470146088AC0B2704749
:1022200021B1028842F48052028004E002884EF616
:10223000FF731A4002807047B1F5006F04D1028825
:1022400042F40062028004E002884FF2FF731A40F9
:102250000280704721B1028842F02002028004E02F
:1022600002884FF6DF731A40028070470146088BE0
:102270000012704721B1828842F40062828004E03B
:1022800082884FF2FF731A408280704721B18288A2
:1022900042F48052828004E082884EF6FF731A4036
:1022A0008280704708B50246002000900092009896
:1022B000084400900098008808BD1AB183880B4339
:1022C000838002E083888B438380704770B5024629
:1022D0000024002500230020958A138B1B0445EA67
:1022E000030626F07F4404EA01068E4201D1012054
:1022F00000E0002070BD10B5014600200023002240
:102300008B8A0A8B120443EA020424F07F4010BD3A
:102310000CB50246002000230193009300920B0F9E
:10232000019321F07F41019B83B1009B1433009303
:1023300010E000000054004000580040005C0040E5
:1023400000127A0040420F00A0860100090C009B99
:1023500018330093009B1B680B400BB1012000E079
:1023600000200CBD002221F07F42D34383827047BE
:1023700030B5024600200023948801F0E06504EAAD
:10238000154321F07F41948A0C4014B10BB1012018
:1023900000E0002030BD002221F07F42D343838241
:1023A00070470000F648006840F00100F4490860FA
:1023B0000020F34908310860F1480068F1490840FD
:1023C000EF490860F048091D0860F048EC49843185
:1023D0000860ED481038091D0860E948006820F4DD
:1023E0008020E74908600020E5490C310860E44995
:1023F0008C31086070470021E14A921C117011462F
:102400000870704710B501460022002300204A11D1
:10241000012A02D1DA4C236808E0022A03D1D84C01
:102420007034236802E0D64C7434236801F01F0234
:10243000012494401C400CB1012000E0002010BD9C
:1024400038B5002000900024002500BF3120FFF7A0
:10245000D9FF05460098401C00900098B0F5A04FA9
:1024600001D0002DF2D03120FFF7CCFF08B10124BC
:1024700000E00024204638BD01460020C04A106814
:1024800020F0F80040EAC10010607047C0490860C1
:1024900070470021BA4A703211701170012802D0C1
:1024A00004280AD104E00121B54A7032117005E018
:1024B0000521B34A7032117000E000BF00BF7047C1
:1024C000B4490860704770B5049C41EA8215012642
:1024D000C6EB530645EA0645054345EA0465A84EA2
:1024E000361D356070BDAA490866704710B5830176
:1024F00043EA016343EA0273A14C8434236010BDB4
:10250000A3498866704710B5830143EA016343EA33
:1025100002739B4C8834236010BD9D490867704747
:102520009B49C864704702460020954B08331868E1
:1025300020F0EC6042EA01031843914B0833186025
:102540007047024600208E4B0833186820F0784010
:1025500042EA010318438A4B08331860704701466A
:102560000020874A0832106820F0030008431060FA
:10257000704783480830006800F00C00704701463F
:1025800000207F4A0832106820F0F00008431060F5
:102590007047014600207A4A0832106820F4E05063
:1025A00008431060704701460020754A08321068E1
:1025B00020F4604040EAC10010607047F0B500218F
:1025C000002200240225002602236D4F08373F68B1
:1025D00007F00C0121B1042905D0082937D105E005
:1025E0006D4F076036E06D4F076033E0644F3F1D6D
:1025F0003F68C7F38056624F3F1D3F6807F03F03B7
:102600006EB1664FB7FBF3F7DFF874C10CF1040C41
:10261000DCF800C0CCF3881C07FB0CF40CE05E4F28
:10262000B7FBF3F7DFF858C10CF1040CDCF800C07D
:10263000CCF3881C07FB0CF4514F3F1D3F68C7F3D8
:1026400001477F1C7D00B4FBF5F7076002E0524FA5
:10265000076000BF00BF4A4F08373F6807F0F0012E
:1026600009094F4F7A5C0768D7404760444F0837E5
:102670003F6807F4E051890A494F7A5C4768D740C0
:1026800087603F4F08373F6807F46041490B444F6C
:102690007A5C4768D740C760F0BD002100F4407203
:1026A000B2F5407F0AD1364A0832116821F4F81198
:1026B0003C4A02401143324A08321160304A7032BB
:1026C0001268C0F30B031A432D4B70331A60704726
:1026D00030494439086070472E49403908607047D6
:1026E00031490860704701460020254A8C32106845
:1026F00020F01F004A1E1043214A8C3210607047A0
:10270000014600201E4A8C32106820F4F8504A1E00
:1027100040EA02201A4A8C321060704701460020BD
:10272000174A8C32106820F440100843106070473C
:1027300001460020124A8C32106820F44000084301
:1027400010607047014600200D4A8C32106820F45A
:10275000403008431060704714490860704739B131
:10276000074A303212680243054B30331A6006E0E4
:10277000034A303212688243014B30331A6070478B
:1027800000380240FFFFF6EA10300024003000203D
:1027900000004742800E47420024F40000127A00F5
:1027A0002F000020FFFCFF0F5C014742E011474271
:1027B00029B1894A12680243874B1A6004E0864AAD
:1027C00012688243844B1A60704739B1824A121DE5
:1027D00012680243804B1B1D1A6006E07E4A121DE0
:1027E000126882437C4B1B1D1A60704739B17A4ACC
:1027F0000C3212680243784B0C331A6006E0764ABA
:102800000C3212688243744B0C331A60704739B132
:10281000714A1032126802436F4B10331A6006E09F
:102820006D4A1032126882436B4B10331A60704746
:1028300039B1694A243A12680243674B243B1A6053
:1028400006E0654A243A12688243634B243B1A60CF
:10285000704739B1604A203A126802435E4B203B10
:102860001A6006E05C4A203A126882435A4B203BC9
:102870001A60704739B1584A1C3A12680243564BE5
:102880001C3B1A6006E0544A1C3A12688243524BC1
:102890001C3B1A60704739B14F4A143A1268024320
:1028A0004D4B143B1A6006E04B4A143A12688243BF
:1028B000494B143B1A60704739B1474A103A1268C5
:1028C0000243454B103B1A6006E0434A103A126837
:1028D0008243414B103B1A60704739B13E4A1C326B
:1028E000126802433C4B1C331A6006E03A4A1C3221
:1028F00012688243384B1C331A60704739B1364A2C
:10290000203212680243344B20331A6006E0324A08
:10291000203212688243304B20331A60704739B13D
:102920002D4A2432126802432B4B24331A6006E0EE
:10293000294A243212688243274B24331A60704795
:1029400039B1254A2C3212680243234B2C331A60CA
:1029500006E0214A2C32126882431F4B2C331A6046
:10296000704739B11C4A3032126802431A4B303377
:102970001A6006E0184A303212688243164B303330
:102980001A60704739B1144A273A12780243124B41
:10299000273B1A7006E0104A273A127882430E4B02
:1029A000273B1A7070470C484030006840F0807038
:1029B000094940310860704701460020064A283A1C
:1029C00012680A400AB1012000E000207047024965
:1029D00026390870704700003438024010B50446AC
:1029E000F648844208D101218014FFF765FF0021D9
:1029F000A014FFF761FF3CE0F148844208D10121B7
:102A00000014FFF748FF00212014FFF744FF30E0D7
:102A1000EC48844208D10121C013FFF73CFF00219C
:102A2000E013FFF738FF24E0E748844208D1012192
:102A30004014FFF741FF00216014FFF73DFF18E04D
:102A4000E248844209D101210805FFF735FF002142
:102A50004FF48010FFF730FF0BE0DD48844208D1CF
:102A600001214805FFF728FF00214FF40010FFF770
:102A700023FF10BD10B50022028802F441520B88DA
:102A80004C8823438C882343CC8823430C892343DD
:102A90004C8923438C892343CC8923431A430280E6
:102AA000838B4FF2FF74234083830B8A038210BD14
:102AB0002DE9F04F002502230024012700220026E3
:102AC000944690469146B0F81CA04FF2400B0AEA9B
:102AD0000B0AA0F81CA04FF0020AA0F820A0858BDA
:102AE000D1F808A0BAF1020F01D100BF6CE0B1F833
:102AF00004A0BAF1000F01D1012700E00227DFF89E
:102B0000D4A2DAF800A00AF4000ABAF1000F09D042
:102B1000DFF8C0A2DAF800A02AF4000ADFF8B4B2A5
:102B2000CBF800A0DFF8ACA20AF17C0ADAF800A02A
:102B3000CAF38818DFF89CA20AF17C0ADAF800A030
:102B4000CAF30279DFF88CA2AAF1040ADAF800A02D
:102B50000AF03F0CDFF880A2BAFBFCFA0AFB08FA85
:102B6000BAFBF9F6B1F806A0BAF5007F0ED14FEA2C
:102B7000162A0AEB8A0A4FEA4A0AD1F808B0BAFBC9
:102B8000FBFA0AF1050A1FFA8AF20FE04FEA471A28
:102B9000B6FBFAFA0AEB8A0A4FEA4A0AD1F808B0F9
:102BA000BAFBFBFA0AF1050A1FFA8AF24FF00A0A89
:102BB000B2FBFAF202F00104A2EB040ACAF34F03DB
:102BC0004FF6FF7A0AEA0424022B01DBFF2B01DD1A
:102BD00002230024B1F806A04AEA040A4AEA030ADA
:102BE000A0F820A0B1F804A0B1F80CB04AEA0B0A92
:102BF000B1F802B04AEA0B0AB1F800B04AEA0B0A8F
:102C00004AF4006A4AEA05058583BDE8F08F002191
:102C1000018041808180C180018141818181C181A8
:102C20000721018270470021018041808180C1809D
:102C30000221816000218181704721B1028842F028
:102C40004002028004E002884FF6BF731A400280FF
:102C5000704721B1828B42F48062828304E0828BD0
:102C60004FF6FF331A408283704702884FF2FF739A
:102C70001A40028002880A4302807047B1F5804FF3
:102C800004D1028842F48042028004E002884BF6BC
:102C9000FF731A40028070474FF6FF62914204D0E2
:102CA000028842F48072028004E002884FF6FF63DB
:102CB0001A400280704721B1828842F0040282806B
:102CC00004E082884FF6FB731A408280704721B17E
:102CD000828842F01002828004E082884FF6EF730F
:102CE0001A408280704730B500220023848B4FF257
:102CF00040052C40848302240484828B0C88B4F524
:102D0000007F01D00C8814B94FF4807308E00C8860
:102D1000B4F5407F03D00C88B4F5807F00D1002348
:102D20008C888D892C434D882C431C4344F40064CB
:102D30002243828330BD0146888970478181704774
:102D400021B1028842F40052028004E002884DF66C
:102D5000FF731A4002807047018841F4805101805E
:102D6000704702460020012901D0108B00E0908AB4
:102D700070470146088A70471AB183880B438380E5
:102D800002E083888B438380704730B500240023A2
:102D90000C110125A540ABB21AB185881D43858071
:102DA00002E085889D43858030BD0246002013895E
:102DB0000B400BB1012000E00020704700300140C3
:102DC00000380040003C0040003401400050014009
:102DD000005401400838024000127A00CA430281C0
:102DE0007047F0B50246002000240023002501F0C2
:102DF0000F070126BE40B4B20B1101269E40B3B2AC
:102E0000968806EA03051689264016B10DB1012001
:102E100000E00020F0BD10B5002201F00F040123F6
:102E2000A3409AB2D343038110BD000010B50446FD
:102E3000FE48844208D101210846FFF73DFD0021EC
:102E40000120FFF739FD9DE0B4F1804F08D1012149
:102E50000846FFF720FD00210120FFF71CFD91E04F
:102E6000F348844208D101210220FFF714FD00211C
:102E70000220FFF710FD85E0EE48844208D10121D1
:102E80000420FFF708FD00210420FFF704FD79E08E
:102E9000E948844208D101210820FFF7FCFC002109
:102EA0000820FFF7F8FC6DE0E448844208D10121D6
:102EB0001020FFF7F0FC00211020FFF7ECFC61E090
:102EC000DF48844208D101212020FFF7E4FC0021E3
:102ED0002020FFF7E0FC55E0DA48844208D10121C8
:102EE0000220FFF7E9FC00210220FFF7E5FC49E0A2
:102EF000D548844209D101210804FFF7DDFC0021F7
:102F00004FF48030FFF7D8FC3CE0D048844209D130
:102F100001214804FFF7D0FC00214FF40030FFF7F7
:102F2000CBFC2FE0CA48844209D101218804FFF775
:102F3000C3FC00214FF48020FFF7BEFC22E0C5480F
:102F4000844208D101214020FFF7A5FC0021402048
:102F5000FFF7A1FC16E0C048844208D1012180207F
:102F6000FFF799FC00218020FFF795FC0AE0BB48A1
:102F7000844207D101218015FFF78DFC0021A015A7
:102F8000FFF789FC10BD00220288A84B98420ED0A2
:102F9000AC4B98420BD0B0F1804F08D0A44B984274
:102FA00005D0A44B984202D0A34B984204D14FF6CF
:102FB0008F731A404B881A43A04B984207D0A04BFE
:102FC000984204D04FF6FF431A400B891A430280FF
:102FD0004B68C3620B880385944B984202D0994B8F
:102FE000984201D18B7A03860123838270474FF088
:102FF000FF31416000210180018141808172704771
:103000000185828270470A46002101884FF68F733E
:10301000194011430180704741627047C162704797
:103020000146486A70470146088D704721B1028801
:1030300042F00202028004E002884FF6FD731A405B
:103040000280704721B1028842F00402028004E04D
:1030500002884FF6FB731A400280704721B1028844
:1030600042F08002028004E002884FF67F731A402B
:103070000280704702884FF6F7731A400280028878
:103080000A430280704702884FF6FF431A400280CD
:1030900002880A430280704721B1028842F001028F
:1030A000028004E002884FF6FE731A4002807047E7
:1030B00070B5002400220023058C4FF6FE763540C3
:1030C0000584028C8388048B4FF68F752C40B51EC7
:1030D0002C400D882C43751E2A408D892A434D882B
:1030E0002A43524DA84202D0564DA84213D14FF662
:1030F000F7752A40CD892A434FF6FB752A408D8803
:103100002A434FF6FF652B404FF6FF552B400D8AA3
:103110002B434D8A2B43838004838D68456302844F
:1031200070BD70B5002400220023058C4FF6EF76A9
:1031300035400584028C8388048B48F6FF752C404B
:103140004FF6FF452C400D884FF6FF7606EA052521
:103150002C434FF6DF752A408D8906EA05152A4370
:103160004D8806EA05152A43304DA84202D0354D58
:10317000A8421DD14FF67F752A40CD894FF6FF76C4
:1031800006EA05152A434FF6BF752A408D8806EAE0
:1031900005152A434FF6FF352B404FF2FF752B40A4
:1031A0000D8A06EA85052B434D8A06EA85052B43E1
:1031B000838004838D688563028470BD70B50024AC
:1031C00000220023058C4FF6FF6635400584028CF3
:1031D0008388848B4FF68F752C404FF6FC752C40FE
:1031E0000D882C434FF6FF552A408D894FF6FF7608
:1031F00006EA05252A434D8806EA05252A430B4D94
:10320000A84202D00F4DA84238D14FF2FF752A4094
:10321000CD894FF6FF7606EA05252A434FF6FF359E
:103220002A408D8806EA05252A4319E0000001405E
:103230000004004000080040000C00400010004066
:1032400000140040000401400040014000440140DF
:103250000048014000180040001C004000200040D1
:103260004EF6FF752B404DF6FF752B400D8A06EA92
:1032700005152B434D8A06EA05152B43838084836D
:103280008D68C563028470BD70B5002200230024E0
:10329000058C4EF6FF7635400584038C8488828B3E
:1032A00048F6FF752A404FF6FF452A400D884FF635
:1032B000FF7606EA05252A434DF6FF752B408D89DA
:1032C00006EA05352B434D8806EA05352B43FE4DAE
:1032D000A84202D0FD4DA84208D14BF6FF752C4004
:1032E0000D8A4FF6FF7606EA85152C43848082838B
:1032F0008D680564038470BD002101804180818058
:1033000081608181C18101824182704770B503462D
:10331000002000241846183001258D40ACB21D8CC9
:10332000A5431D8409B108290AD100EB6100056895
:103330004FF68F76354005600568154305600FE050
:103340000D1FC5F34E052844056848F6FF76354045
:10335000056005684FF6FF7606EA022635430560EC
:1033600070BD4163704781637047C16370470164FA
:1033700070470A460021018B4FF68F7319401143A5
:10338000018370470A460021018B48F6FF731940FC
:103390004FF6FF7303EA02231943018370470A467D
:1033A0000021818B4FF68F73194011438183704741
:1033B0000A460021818B48F6FF7319404FF6FF73D0
:1033C00003EA02231943818370470A460021018BD7
:1033D0004FF6F77319401143018370470A460021E5
:1033E000018B4FF2FF7319404FF6FF7303EA02237C
:1033F0001943018370470A460021818B4FF6F7730A
:1034000019401143818370470A460021818B4FF296
:10341000FF7319404FF6FF7303EA022319438183B8
:1034200070470A460021018B4FF6FB731940114388
:10343000018370470A460021018B4FF6FF33194084
:103440004FF6FF7303EA02231943018370470A46CC
:103450000021818B4FF6FB73194011438183704724
:103460000A460021818B4FF6FF3319404FF6FF7358
:1034700003EA02231943818370470A460021018B26
:103480004FF67F7319401143018370470A460021AC
:10349000018BC1F30E014FF6FF7303EA02231943B8
:1034A000018370470A460021818B4FF67F731940D4
:1034B0001143818370470A460021818BC1F30E01BD
:1034C0004FF6FF7303EA02231943818370470A46CC
:1034D0000021018C4FF6FD731940114301847047A0
:1034E0000A460021018C4FF6F773194011430184FD
:1034F00070470A460021018C4FF6DF7319404FF6E2
:10350000FF7303EA02131943018470470A4600213E
:10351000018C4FF67F7319404FF6FF7303EA0213D5
:103520001943018470470A460021018C4FF6FF536E
:1035300019404FF6FF7303EA0223194301847047D1
:103540000A460021018C4FF2FF7319404FF6FF73BA
:1035500003EA02231943018470470A460021018CC3
:103560004DF6FF7319404FF6FF7303EA0233194318
:103570000184704730B5002301248C40A3B2048C31
:103580009C430484048C02FA01F5ADB22C430484FC
:1035900030BD30B5002304248C40A3B2048C9C437E
:1035A0000484048C02FA01F5ADB22C43048430BDCE
:1035B000828B4FF2FF331A408283828B4FF6FF7368
:1035C00003EA01231A4382837047F0B50C4615467F
:1035D000002100220026078C4EF6FF7C07EA0C072C
:1035E0000784818B028C4FF6FF7707EA043640F69A
:1035F000FF4739404FF6FF7707EA052739434FF673
:10360000FF7707EA0337394345F6FF773A4046F438
:1036100080573A4381830284F0BD828B4FF6F37367
:103620001A408283828B0A4382837047F0B50C462E
:103630001546002100220026078C4FF6FF6C07EA92
:103640000C070784818B028C4FF6FF7707EA04266C
:103650004FF60C7739404FF6FF7707EA03172F43F1
:1036600039434FF2FF573A4046F480773A4381831B
:103670000284F0BD028B4FF2FF331A400283028BAB
:103680004FF6FF7303EA01231A4302837047F0B534
:103690000C461546002100220026078C4FF6EF7CD1
:1036A00007EA0C070784018B028C4FF6FF7707EAC5
:1036B000041640F6FF4739404FF6FF7707EA033715
:1036C00039434FF6FF7703E000000140000401405A
:1036D00007EA052739434FF65F773A4046F010076F
:1036E0003A4301830284F0BD028B4FF6F3731A4014
:1036F0000283028B0A4302837047F0B50C461546DD
:1037000000210022068C4FF6FE773E400684018B96
:10371000028C4FF60C7631407E1C06EA03162E43CF
:1037200031434FF6F576324044F0010632430183CF
:103730000284F0BD70B505460C46208850B9238937
:10374000A28861882846FFF7D8FFE1882846FFF75E
:10375000CBFF25E0208804280AD12389A28861882C
:103760002846FFF794FFE1882846FFF783FF17E01C
:10377000208808280AD12389A28861882846FFF773
:1037800055FFE1882846FFF748FF09E02389A28812
:1037900061882846FFF719FFE1882846FFF708FFF0
:1037A00070BD002101804180012181800021C18004
:1037B000018170472DE9F04105460C46002601279E
:1037C000608808B9022600E00026A088012801D1FF
:1037D000022700E001272088A0B92389A2886188F8
:1037E0002846FFF78AFFE1882846FFF77DFF2389F7
:1037F0003A4631462846FFF74AFFE1882846FFF758
:1038000039FF13E02389A28861882846FFF73FFF2C
:10381000E1882846FFF72EFF23893A46314628469D
:10382000FFF76BFFE1882846FFF75EFFBDE8F081F8
:103830000146486B70470146886B70470146C86B6C
:1038400070470146086C70470A884B881A438B887A
:103850001A43CB881A430B891A434B891A438B8925
:103860001A43A0F8442070470021018041808180E4
:10387000C180018141818181704731B1B0F844201C
:1038800042F40042A0F8442005E0B0F84420C2F31E
:103890000E02A0F84420704721B1828842F0040251
:1038A000828004E082884FF6FB731A408280704762
:1038B00021B1828842F00102828004E082884FF6C2
:1038C000FE731A40828070471AB183890B4383814B
:1038D00002E083898B43838170478182704702466F
:1038E0000020138A0B400BB1012000E0002070473C
:1038F000CA430282704730B50246002000230024EC
:10390000158A05EA0103958905EA010413B10CB192
:10391000012000E0002030BDCA430282704741EA26
:103920000203A0F8483070471AB183890B438381A2
:1039300002E083898B438381704721B1828842F002
:103940000802828004E082884FF6F7731A40828072
:10395000704701894FF6F8721140018170470A469D
:10396000002101894FF68F7319401143018170477F
:1039700030B504460D4629462046FFF7F0FF208962
:1039800040F00700208130BD2DE9F04104460D468E
:1039900016461F46602D06D13B4601223146204681
:1039A000FFF775FE05E03B46012231462046FFF752
:1039B000A4FE29462046FFF7D2FF208940F00700E9
:1039C0002081BDE8F08130B50C4600210189C9B2E3
:1039D0004FF6FF7505EA0325154325432943018169
:1039E00030BD2DE9F04105460E46174698460024A5
:1039F00043463A4631462846FFF7E5FF2C894FF605
:103A0000F870044044F007044FF68F70044044F00F
:103A100070042C81BDE8F081F0B504460D461646D1
:103A20001F463B46324629462046FFF7CCFF2089F9
:103A300040F480402081F0BD82884FF68F731A4099
:103A4000828082880A438280704702894FF6F87329
:103A50001A40028102890A430281704702894FF6A7
:103A60007F731A40028102890A4302817047F0B5D0
:103A70000C4615461E460021002200230189028BB8
:103A8000038C4FF6F877394021434FF6FC473A4014
:103A900040F201173A434FF6DD773B404FF6FF7790
:103AA00007EA06172F433B43018102830384F0BDDD
:103AB00021B1828842F08002828004E082884FF641
:103AC0007F731A4082807047A0F850107047000042
:103AD00010B50446FA48844208D101211020FEF7AF
:103AE000EBFE00211020FEF7E7FE57E0F548844288
:103AF00009D101214804FEF7CEFE00214FF4003029
:103B0000FEF7C9FE4AE0F048844209D10121880449
:103B1000FEF7C1FE00214FF48020FEF7BCFE3DE021
:103B2000EA48844209D10121C804FEF7B4FE00210D
:103B30004FF40020FEF7AFFE30E0E548844209D1A3
:103B400001210805FEF7A7FE00214FF48010FEF7C3
:103B5000A2FE23E0DF48844208D101212020FEF7A5
:103B6000ABFE00212020FEF7A7FE17E0DA488442D2
:103B700009D101218807FEF78EFE00214FF0804019
:103B8000FEF789FE0AE0D548844207D101214005AD
:103B9000FEF781FE00216005FEF77DFE10BD2DE9D8
:103BA000FF4705460E460024A14600BFA046B08947
:103BB00000B100BF2C8A24F44054F08804432C82C6
:103BC000AC8941F20C608443B08831890843718923
:103BD00008430443AC81AC8A24F44074B0890443A4
:103BE000AC826846FEF7EAFCB548854202D0B94887
:103BF000854202D1DDF80C9001E0DDF80890A8893B
:103C000000F4004040B109EBC90000EB0910316835
:103C10004900B0FBF1F707E009EBC90000EB091020
:103C200031688900B0FBF1F76420B7FBF0F00401C4
:103C30002009642101FB1078A88900F4004040B1FC
:103C4000322000EBC800B0FBF1F000F007000443A5
:103C500008E0322000EB08106421B0FBF1F000F026
:103C60000F0004432C81BDE8FF874FF4165101601B
:103C700000218180C18001810C214181002181814D
:103C8000704710B502460020108A20F470600B883F
:103C90004C8823438C882343CC88234318431082C9
:103CA00010BD0021018041808180C180704721B119
:103CB000828942F40052828104E082894DF6FF73CA
:103CC0001A4082817047028B02F47F420283028B8A
:103CD0000A430283704721B1828942F40042828103
:103CE00003E08289C2F30E028281704721B1828A89
:103CF00042F40062828204E0828A4FF2FF731A402B
:103D000082827047C1F3080282807047014688882A
:103D1000C0F308007047028A4FF6F0731A4002821F
:103D2000028A0A430282704721B1828942F002026C
:103D3000828104E082894FF6FD731A4082817047C8
:103D400082894FF2FF731A40828182890A438281FD
:103D50007047028A4FF6DF731A400282028A0A43D2
:103D60000282704721B1028A42F48042028204E05A
:103D7000028A4BF6FF731A4002827047818941F034
:103D800001018181704721B1828A42F0080282825A
:103D900004E0828A4FF6F7731A4082827047028BE2
:103DA000D2B20283028B42EA01220283704721B120
:103DB000828A42F02002828204E0828A4FF6DF7318
:103DC0001A408282704721B1828A42F010028282B8
:103DD00004E0828A4FF6EF731A4082827047828A2B
:103DE0004FF6FB731A408282828A0A4382827047AE
:103DF00021B1828A42F00202828204E0828A4FF676
:103E0000FD731A40828270471AB1838A0B43838202
:103E100002E0838A8B4383827047F0B50346002417
:103E200000260025002040F66A17B94200D100BFE5
:103E30001846C1F3421401F01F06012707FA06F5E0
:103E4000012C01D10C3004E0022C01D1103000E033
:103E500014301AB107682F43076002E00768AF43C8
:103E60000760F0BD02460020B1F5007F00D100BF21
:103E700013880B400BB1012000E00020704701F4D3
:103E80000072B2F5007F00D100BFCA4302807047C4
:103E900070B50246002400230025002040F66A1673
:103EA000B14200D100BFC1F3421501F01F0301264A
:103EB00006FA03F3012D13D19689334017E0000071
:103EC000001001400044004000480040004C004009
:103ED000005000400014014000780040007C004089
:103EE000022D02D1168A334001E0968A33400C122B
:103EF000012606FA04F41688344013B10CB10120EF
:103F000000E0002070BD10B50022002340F66A14C6
:103F1000A14200D100BF0A1201249440A3B2DC43A5
:103F2000048010BD0948804709480047FEE7FEE7C6
:103F3000FEE7FEE7FEE7FEE7FEE7FEE7FEE7FEE759
:103F400004480549054A064B7047000075400008C3
:103F5000AD010008B8580220B85E0220B85A02200D
:103F6000B85A02200CB500200190009083480068E8
:103F700040F480308149086000BF8048006800F448
:103F8000003000900198401C0190009818B90198E9
:103F9000B0F5A04FF1D17948006800F4003010B1BD
:103FA0000120009001E0002000900098012860D1DD
:103FB00072484030006840F08050704940310860DD
:103FC0006F48006840F440406D4908606B48083015
:103FD00000686A49083108600846006840F40040FB
:103FE00008600846006840F4A05008606548091F52
:103FF0000860081F006840F08070091F086000BF5B
:104000005E48006800F000700028F9D05C48006845
:1040100040F480305A49086000BF5948406800F4B5
:1040200080300028F9D05648006840F400305449E8
:10403000086000BF5248406800F400300028F9D002
:1040400040F20570504908604C480830006820F084
:1040500003004A49083108600846006840F0020041
:10406000086000BF45480830006800F00C000828D0
:10407000F8D10CBD10B54548006840F470004349C4
:1040800008603E48006840F001003C49086000209C
:104090003A4908310860394800683D4908403749C5
:1040A00008603C48091D0860081F006820F4802053
:1040B000091F0860002031490C310860FFF752FFEA
:1040C0004FF0006031498039086010BD70B50020A4
:1040D0000022022300240221284D08352D6805F016
:1040E0000C0020B1042806D0082834D107E02A4D5E
:1040F0002A4E356033E02A4D284E35602FE01F4DA3
:104100002D1D2D68C5F380541C4D2D1D2D6805F007
:104110003F0154B1224DB5FBF1F5184E361D3668FE
:10412000C6F3881605FB06F209E01B4DB5FBF1F559
:10413000124E361D3668C6F3881605FB06F20F4D83
:104140002D1D2D68C5F301456D1C6B00B2FBF3F509
:10415000124E356003E0104D104E356000BF00BFB9
:10416000064D08352D68C5F303150E4E705D0B4DD9
:104170002D68C540094E356070BD00000038024012
:104180000070004008544007003C024088ED00E009
:10419000FFFFF6FE103000240024F4004000002051
:1041A00000127A004400002070477047704775463F
:1041B00000F02CF8AE4605006946534620F0070093
:1041C000854618B020B5FFF7BBFEBDE820404FF094
:1041D00000064FF000074FF000084FF0000B21F0F1
:1041E0000701AC46ACE8C009ACE8C009ACE8C009BE
:1041F000ACE8C0098D46704710B50446AFF30080A7
:104200002046BDE81040FCF71AB80000004870478F
:104210005458022001491820ABBEFEE726000200D8
:1042200070474FF04070E1EE100A70471280121490
:1042300040D0B0841101328017171805030A190203
:104240001A7A703A7135721173F0A2024F80508061
:1042500051005222535E5480589E7A207B107C1E5F
:104260007D357E5A7F69807681808288838F8496AF
:1042700085A386AF87C488D789E8A505AB072495B1
:10428000253326E39F78A068A103A6D8A7D8A8F075
:10429000A990AA941000430A44F045344658472890
:1042A000483A59885A885B445C675D495E0E6C0ADF
:1042B0006D556E116F9F6A400140026013E7341123
:1042C0003F00750576E14C007701B80A41183B12B2
:1042D000A48896009730982099309A849B299C0353
:1042E0009D4C9E3F78040E610F4B16021E0021026A
:1042F00022912907330B350B371D3871392A3C7849
:104300004D404E2069006B3A74108D4F8E008F0027
:104310009000910096009A00B10CB20EB3824B014E
:10432000000000000000000000000000000000008D
:10433000000000000010001000100010001000101D
:1043400000000010000000000028002800280000E5
:104350000000000000000000000000000024002415
:10436000007C00240048007C004800480000000059
:104370000038005400500038001400540054003835
:1043800000100000002000540058003000280054A5
:104390000014000800000000001000280028001091
:1043A00000340048004800340000000000100010F5
:1043B00000100000000000000000000000000000ED
:1043C0000008001000200020002000200020002015
:1043D0000010000800200010000800080008000875
:1043E000000800080010002000100038001000280D
:1043F00000000000000000000000000000000000BD
:1044000000100010007C00100010000000000000F0
:10441000000000000000000000000000000000108C
:104420000010001000000000000000000000003834
:10443000000000000000000000000000000000007C
:10444000000000000000001000000000000800084C
:1044500000100010001000100020002000000000DC
:104460000038004400440054004400440044003834
:10447000000000000010003000500010001000107C
:104480000010001000000000003800440044000448
:10449000000800100020007C0000000000380044EC
:1044A000000400180004000400440038000000006C
:1044B00000080018002800280048007C00080008B8
:1044C00000000000007C0040004000780004000470
:1044D000004400380000000000380044004000782C
:1044E000004400440044003800000000007C000448
:1044F0000008001000100020002000200000000034
:1045000000380044004400380044004400440038AF
:10451000000000000038004400440044003C000457
:1045200000440038000000000000000000100000FF
:10453000000000000000001000000000000000006B
:10454000000000100000000000000010001000102B
:1045500000000000000C003000400030000C0000A3
:1045600000000000000000000000007C0000007C53
:1045700000000000000000000000000000600018C3
:104580000004001800600000000000000038004433
:1045900000040008001000100000001000000000DF
:1045A00000380044004C0054005C004000400038DB
:1045B0000000000000100028002800280028007CCF
:1045C00000440044000000000078004400440078EB
:1045D000004400440044007800000000003800441B
:1045E000004000400040004000440038000000004F
:1045F000007000480044004400440044004800703B
:1046000000000000007C00400040007C00400040B2
:104610000040007C00000000007C0040004000786A
:10462000004000400040004000000000003800440E
:1046300000400040005C00440044003800000000DE
:10464000004400440044007C004400440044004412
:1046500000000000003800100010001000100010D2
:1046600000100038000000000004000400040004F2
:10467000000400040044003800000000004400482A
:104680000050006000500048004800440000000056
:104690000040004000400040004000400040007CDE
:1046A000000000000044006C006C00540044004412
:1046B0000044004400000000004400640064005412
:1046C0000054004C004C004400000000003800443E
:1046D000004400440044004400440038000000004E
:1046E000007800440044004400780040004000404E
:1046F000000000000038004400440044004400442E
:1047000000540038000400000078004400440044D5
:1047100000780048004800440000000000380044D1
:104720000040003000080004004400380000000091
:10473000007C00100010001000100010001000108D
:1047400000000000004400440044004400440044D1
:1047500000440038000000000044004400440028E9
:104760000028002800100010000000000044004451
:10477000005400540054006C002800280000000081
:1047800000440028002800100010002800280044E1
:104790000000000000440044002800280010001021
:1047A0000010001000000000007C00040008001051
:1047B000001000200040007C0000000000180010E5
:1047C0000010001000100010001000100010001861
:1047D0000020002000100010001000100008000849
:1047E0000000000000300010001000100010001049
:1047F00000100010001000300010002800280044B5
:1048000000000000000000000000000000000000A8
:10481000000000000000000000000000000000FE9A
:104820000020001000000000000000000000000058
:10483000000000000000000000380044003C00447C
:10484000004C0034000000000040004000580064AC
:104850000044004400640058000000000000000014
:1048600000380044004000400044003800000000D0
:10487000000400040034004C00440044004C0034A8
:10488000000000000000000000380044007C0040F0
:104890000044003800000000000C0010007C0010F4
:1048A00000100010001000100000000000000000C8
:1048B0000034004C00440044004C003400040078F4
:1048C000004000400058006400440044004400449C
:1048D0000000000000100000007000100010001028
:1048E0000010001000000000001000000070001018
:1048F0000010001000100010001000E00040004008
:1049000000480050006000500048004400000000D3
:1049100000700010001000100010001000100010B7
:104920000000000000000000007800540054005413
:104930000054005400000000000000000058006413
:104940000044004400440044000000000000000057
:1049500000380044004400440044003800000000D7
:104960000000000000580064004400440064005847
:1049700000400040000000000034004C00440044AF
:10498000004C0034000400040000000000580064E3
:104990000040004000400040000000000000000017
:1049A00000380044003000080044003800000000D7
:1049B00000200020007800200020002000200018A7
:1049C00000000000000000000044004400440044D7
:1049D000004C0034000000000000000000440044CF
:1049E000002800280028001000000000000000003F
:1049F000005400540054006C0028002800000000FF
:104A000000000000004400280010001000280044AE
:104A100000000000000000000044004400280028BE
:104A2000001000100010006000000000007C000872
:104A3000001000200040007C000000000018001062
:104A400000100010002000200010001000100018BE
:104A500000100010001000100010001000100010D6
:104A600000100010003000100010001000080008B6
:104A70000010001000100030000000000000007462
:104A8000004C0000000000000000000000000000DA
:104A90000000000000000000000000000000000016
:104AA0000000000000000000000000000000000006
:104AB0000000000C000C000C000C000C000C000CA2
:104AC000000C000C000C000C0000000C000C00009E
:104AD000000000000000001B001B001B001B001B4F
:104AE00000000000000000000000000000000000C6
:104AF00000000000000000000000801980198019EB
:104B00008019C07FC07F80190033C07FC07F003311
:104B10000033003300330000000000000000001EDE
:104B2000003F807580650074003C001E0007800512
:104B3000806580658075003F001E00040004000051
:104B40000000007000D840D8C0D880D9007300069B
:104B5000000C801BC036C066C046C0068003000043
:104B6000000000000000001E003F0033003300334F
:104B7000001E000CC03CC066806380618063C03E44
:104B8000801C0000000000000000000C000C000C65
:104B9000000C000C000000000000000000000000FD
:104BA0000000000000000000000000008000000184
:104BB0000003000600060004000C000C000C000CB2
:104BC000000C000C00040006000600030001800039
:104BD000002000100018000C000C00040006000665
:104BE00000060006000600060004000C000C001879
:104BF000001000200000000C002D003F001E0033BC
:104C000000000000000000000000000000000000A4
:104C10000000000000000000000000000000000C88
:104C2000000C000C000CC0FFC0FF000C000C000CBE
:104C3000000C000000000000000000000000000068
:104C40000000000000000000000000000000000064
:104C5000000000000000000C000C0004000400082C
:104C60000000000000000000000000000000000044
:104C70000000001E001E00000000000000000000F8
:104C80000000000000000000000000000000000024
:104C90000000000000000000000000000000000C08
:104CA000000C0000000000000000000300030003EF
:104CB0000006000600060006000C000C000C000CAC
:104CC0000018001800180000000000000000001E7E
:104CD000003F0033806180618061806D806D806104
:104CE000806180610033003F001E00000000000072
:104CF00000000006000E001E00360026000600061A
:104D00000006000600060006000600060006000079
:104D1000000000000000001E003F80738061806181
:104D2000800100030006000C001800300060807F46
:104D3000807F0000000000000000001C003E0063B7
:104D400000630003000E000E0003800180018061FB
:104D50008073003F001E00000000000000000006FD
:104D6000000E000E001E001E001600360036006603
:104D7000807F807F00060006000600000000000023
:104D80000000007F007F006000600060006E007F18
:104D900080638001800180618073003F001E0000FD
:104DA000000000000000001E003F803380610060B2
:104DB000006E007F80738061806180618033003F7E
:104DC000001E0000000000000000807F807F800146
:104DD0000003000300060006000C000C000C000895
:104DE0000018001800180000000000000000001E5D
:104DF000003F8063806180610021001E003F806170
:104E0000806180618061003F001E000000000000A2
:104E10000000001E003F007380618061806180732C
:104E2000803F801D800180610073003F001E0000F4
:104E30000000000000000000000000000000000C66
:104E4000000C000000000000000000000000000C4A
:104E5000000C000000000000000000000000000046
:104E600000000000000C000C00000000000000002A
:104E70000000000C000C000400040008000000000A
:104E80000000000080008003000E00380060003841
:104E9000000E800380000000000000000000000001
:104EA00000000000000000000000807F807F000004
:104EB0000000807F807F00000000000000000000F4
:104EC0000000000000000000000000000040007032
:104ED000001C000780010007001C0070004000005B
:104EE00000000000000000000000001F803FC071B3
:104EF000C060C000C00180030007000E000C000C61
:104F00000000000C000C0000000000000000001E6B
:104F1000003F803180718063806F806D806D806F15
:104F2000806700600032003E001C000000000000AE
:104F30000000000E000E001B001B001B001B803138
:104F40008031803F803F8031C060C060C060000021
:104F5000000000000000007C007E0063006300632E
:104F60000063007E007E0063806180618063007F5B
:104F7000007E0000000000000000001E003F8031A5
:104F8000806100600060006000600060006080611F
:104F90008031003F001E0000000000000000007C87
:104FA000007F0063806380618061806180618061D7
:104FB000806100630063007E007C00000000000050
:104FC0000000807F807F0060006000600060007FE4
:104FD000007F0060006000600060807F807F0000D4
:104FE000000000000000807F807F006000600060A3
:104FF0000060007F007F0060006000600060006073
:1050000000600000000000000000001E003F803132
:105010008061006000600060806380638061806107
:105020008031803F001E0000000000000000806111
:1050300080618061806180618061807F807F80612C
:1050400080618061806180618061000000000000FB
:105050000000003F003F000C000C000C000C000C96
:10506000000C000C000C000C000C003F003F000086
:1050700000000000000080018001800180018001AB
:105080008001800180018001806180618073003F28
:10509000001E0000000000000000C060806100638E
:1050A00000660066006C0078007C006600660063A5
:1050B00080618061C06000000000000000000060AE
:1050C00000600060006000600060006000600060E0
:1050D000006000600060807F807F000000000000B2
:1050E0000000C071C071C07BC07AC06AC06AC06E67
:1050F000C064C060C060C060C060C060C0600000CC
:1051000000000000000080718071807980798079D2
:10511000806D806D806D806580678067806780634B
:1051200080630000000000000000001E003F00330C
:105130008061806180618061806180618061806167
:105140000033003F001E0000000000000000007E51
:10515000007F80638061806180618063007F007E6A
:10516000006000600060006000600000000000005F
:105170000000001E003F003380618061806180611B
:1051800080618061806580670033803F401E000041
:10519000000000000000007E007F8063806180616D
:1051A0008063007F007E0066006300638061806131
:1051B000C0600000000000000000000E001F8031F1
:1051C000803100300038001E00078003806180615C
:1051D0008031003F001E0000000000000000C0FF02
:1051E000C0FF000C000C000C000C000C000C000CAC
:1051F000000C000C000C000C000C00000000000073
:105200000000806180618061806180618061806177
:1052100080618061806180618073003F001E0000BA
:10522000000000000000C060C060C06080318031BC
:105230008031001B001B001B001B000E000E000E27
:1052400000040000000000000000C0C0C0C0C0C0DA
:10525000C0C0C0C0C0CC804C804C805E80528052A8
:105260008073806180610000000000000000C0C009
:10527000806080610033003B001E000C000C001EAB
:10528000001F003B80718061C0C000000000000072
:105290000000C0C08061806100330033001E001E2A
:1052A000000C000C000C000C000C000C000C0000AA
:1052B000000000000000803F803F800100030003E9
:1052C0000006000C000C0018001800300060807F01
:1052D000807F000000000000000F000F000C000C99
:1052E000000C000C000C000C000C000C000C000C5E
:1052F000000C000C000C000C000F000F0000001848
:1053000000180018000C000C000C000C0006000631
:105310000006000600030003000300000000000078
:10532000001E001E0006000600060006000600061D
:10533000000600060006000600060006000600063D
:10534000001E001E0000000C000C001E00120033A6
:105350000033806180610000000000000000000058
:10536000000000000000000000000000000000003D
:10537000000000000000000000000000000000002D
:105380000000000000000000E0FF00000000003806
:105390000018000C000000000000000000000000E9
:1053A00000000000000000000000000000000000FD
:1053B00000000000000000000000001F803F80612E
:1053C0008001801F803F80618063807FC038000043
:1053D0000000000000000060006000600060006EDF
:1053E000007F807380618061806180618073007F55
:1053F000006E00000000000000000000000000003F
:105400000000001E003F80738061006000608061CA
:105410008073003F001E00000000000000008001BB
:10542000800180018001801D803F807380618061E8
:10543000806180618073803F801D0000000000005B
:1054400000000000000000000000001E003F00738C
:105450008061807F807F00608071003F001E0000BF
:10546000000000000000C007C00F000C000C807F8F
:10547000807F000C000C000C000C000C000C000CD9
:10548000000C000000000000000000000000000010
:10549000801D803F80738061806180618061807346
:1054A000803F801D80018063007F003E000000601F
:1054B000006000600060006F807F807180618061AB
:1054C0008061806180618061806100000000000077
:1054D00000000006000600000000003E003E00063E
:1054E0000006000600060006000600060006000092
:1054F000000000000006000600000000003E003E24
:10550000000600060006000600060006000600066B
:1055100000060046007E003C000000600060006065
:105520000060806100630066006C007C00760063B0
:1055300000638061C0600000000000000000003EC9
:10554000003E0006000600060006000600060006F3
:10555000000600060006000600060000000000002D
:105560000000000000000000000080DDC0FFC0CE91
:10557000C0CCC0CCC0CCC0CCC0CCC0CCC0CC000057
:105580000000000000000000000000000000006FAC
:10559000807F8071806180618061806180618061D5
:1055A000806100000000000000000000000000001A
:1055B0000000001E003F8073806180618061806117
:1055C0008073003F001E000000000000000000008B
:1055D00000000000006E007F807380618061806148
:1055E00080618073007F006E00600060006000607A
:1055F0000000000000000000801D803F807380617B
:105600008061806180618073803F801D80018001A6
:105610008001800100000000000000000000006721
:10562000803F003900300030003000300030003062
:10563000003000000000000000000000000000003A
:105640000000001E803F80610060007F803F80017D
:105650008061007F001E00000000000000000000CC
:10566000000800180018007F007F001800180018BC
:10567000001800180018801F800F000000000000B4
:105680000000000000000000000080618061806177
:1056900080618061806180618063807F803D0000E7
:1056A0000000000000000000000000000000C060DA
:1056B000803180318031001B001B001B000E000E6A
:1056C00000060000000000000000000000000000D4
:1056D000000080DD80DD80DD00550055005500773D
:1056E00000770022002200000000000000000000FF
:1056F000000000000000806100330033001E000C39
:10570000000C001E00330033806100000000000028
:1057100000000000000000008061806180310033E3
:105720000033001B001B001B000E000E000E001CAF
:10573000007C007000000000000000000000C07F3E
:10574000C07F800100030006000C00180030C07FFD
:10575000C07F0000000000008003800700060006F4
:10576000000600060006000E001C001C000E0006CD
:1057700000060006000600068007800300060006FB
:1057800000060006000600060006000600060006E9
:1057900000060006000600060006000600060006D9
:1057A0000038003C000C000C000C000C000C000E3B
:1057B00000070007000E000C000C000C000C000C91
:1057C000003C003800000000000000000000000065
:1057D00000008038807F00470000000000000000CB
:1057E00000000000000000000000000000000000B9
:1057F00000000000000000000000000000000000A9
:105800000000000000000000000000000000000098
:10581000000000000000000000000000E003E003C2
:10582000E003E003E003E003E003E003C003C003A0
:10583000C001C001C001C001C001000000000000A3
:10584000E003E003E00300000000000000000000AF
:105850003C1E3C1E3C1E3C1E3C1E3C1E3C1E0000D2
:105860000000000000000000000000000000000038
:105870000000000000000000000000000000000028
:1058800000000000CE01CE03DE039E039C039C07B4
:10589000FF3FFF7F3807380F780F780F780EFFFF34
:1058A000FFFFF01EF01CE01CE03CE03DE039000092
:1058B0000000000000000000FC03FE0FEE1FE01ED1
:1058C000E01EE01EE01EE01FE00FE007F003FC0119
:1058D000FE01FE01FE01FE01FE01FE01FE3DFC3F58
:1058E000F00FE001E001000000000000033E07F7B8
:1058F0008FE78EE79EE3BCE3B8E7F8E7F0F7E03F19
:10590000C001FF03FF07F307F30FF31EF33CF33867
:10591000F3787FF03FE0000000000000000000008E
:10592000E007F80F780F781F781F781F780FF00FB7
:10593000E00F801FC37FC3FBE7F3F7F1F7F0FFF041
:105940007FF03EF87F7CFF3FEF1F0000000000006B
:1059500000000000E003E003E003E003E003C00315
:10596000C001000000000000000000000000000076
:105970000000000000000000000000000000000027
:1059800000000000000000003F007C00F001E0018A
:10599000C003C00780078007800F000F000F000FB3
:1059A000000F000F000F800F80078007C007C003A3
:1059B000E001F0017C003F000F000000007E001FAE
:1059C000C007C003E001F001F000F000F80078002B
:1059D00078007800780078007800F800F000F00097
:1059E000F001E001C003C007001F007E0078000046
:1059F000E003C003C001CE39FF3F7F3F20037003A7
:105A0000F807780F3C1F3806000000000000000077
:105A10000000000000000000000000000000000086
:105A20000000000000000000000000000000000076
:105A3000C001C001C001C001C001C001C001FFFF21
:105A4000FFFFC001C001C001C001C001C0010000D2
:105A50000000000000000000000000000000000046
:105A60000000000000000000000000000000000036
:105A700000000000000000000000E003E003E0037D
:105A8000E003E001E001E001C0018003000000004C
:105A90000000000000000000000000000000000006
:105AA0000000FE3FFE3F000000000000000000007C
:105AB00000000000000000000000000000000000E6
:105AC00000000000000000000000000000000000D6
:105AD00000000000000000000000000000000000C6
